:020000020000FC
:100000000C9446000C9402000C9404000C9406001E
:100010000C9408000C940A000C940C000C940E0034
:100020000C9410000C9412000C9414000C94160004
:100030000C9418000C941A000C941C000C941E00D4
:100040000C9420000C9422000C9424000C942600A4
:100050000C9428000C942A000C942C000C942E0074
:100060000C9430000C9432000C9434000C94360044
:100070000C9438000C943A000C943C000C943E0014
:100080000C9440000C9442000C9444000FE70DBF08
:1000900001E00EBFEBD0EFD0F8D0789401D0F6CFCE
:1000A0000FEF0ABB04BB01BBECEEF1E0A0E0B2E055
:1000B00000E805900D920A95E1F7E8E9F1E048E0E3
:1000C00005911591EF93FF934F93E2D04F91FF91DC
:1000D000EF9108EC5AD04A9599F7E8EAF1E049E047
:1000E00005911591EF93FF934F93D2D04F91FF91CC
:1000F000EF9105911591C0E8D1E0EF93FF934F93F5
:100100001F930F93F3D00F911F914F91FF91EF9198
:10011000C0E8D1E0A0E0B2E0A10F10E0B11F29914A
:100120003D912317E9F40A95D1F703E22ED04A95C1
:10013000B9F60FEF0BBB00E002BB0FEF05BBECEC19
:10014000F1E040E105911591EF93FF934F93A0D01B
:100150004F91FF91EF9103E218D04A9599F781F002
:1001600005E011E095D00FEF02BB00E00BBB0FEFF5
:1001700005BB02E30AD002E510E08AD004E605D010
:1001800000E010E085D0FFCF0895C0E2DEE42197C3
:10019000F1F70A95D1F708950501B801E8030000C9
:1001A000D0073200A00F640092000200DC000A06B3
:1001B0002601016472010179B801025D0B02154448
:1001C0006E0211211003403FE80380005C033E03F0
:1001D000940210035C033E03940210035C033E038D
:1001E000940210035C033E03940210035555AAAA1F
:1001F000AA5555AA34127856BC9AF0DE02010804BA
:1002000020108040FDFEF7FBDFEF7FBF221144335B
:1002100066558877010003020504070609080B0AE2
:100220000D0C0F0E111013121514171629282B2A56
:100230002D2C2F2E19181B1A1D1C1F1E21202322A6
:10024000252427263130333235343736AA99CCBBB2
:10025000EEDD00FF414043424544474649484B4A92
:100260004D4C4F4E39383B3A3D3C3F3E07E207BBD1
:10027000002708BB089500270DBD0CBD0BBD0ABDAE
:1002800000E00FBD08E00EBD089501E50DB9089529
:1002900022270217120731F400E00FBD08E00EBD5F
:1002A000C6980DC020E42FBD2AE02EBD20E231EA21
:1002B00047E006D000272150300B3BBD2ABD0895F2
:1002C00068E133242224221F331F441F221C331CC5
:1002D0002016310610F0201A310A6A95A1F7221F64
:1002E000331F441F209530954095089541E04123E8
:1002F0001695003069F00DD040FD03C039930A9582
:1003000001C04427003021F029930A951395F1CFBD
:100310000895C09A26E027952FB90DD0212F220FDE
:100320002FB909D020E02FB906D03FB12FB903D0A3
:0C0330002FB1C0980895779BFECF089570
:00000001FF
