:020000020000FC
:100000000C9446000C9402000C9404000C9406001E
:100010000C9408000C940A000C940C000C940E0034
:100020000C9410000C9412000C9414000C94160004
:100030000C9418000C941A000C941C000C94A2024E
:100040000C9420000C9422000C9424000C942600A4
:100050000C9428000C942A000C942C000C942E0074
:100060000C9430000C9432000C9434000C94360044
:100070000C9438000C943A000C943C000C943E0014
:100080000C9440000C9442000C9444000FE70DBF08
:1000900001E00EBF05D01BD083D4789426D0F6CFD4
:1000A0000EE003BF002702BF0FE101BF07B70260E8
:1000B00007BF089500270DBD0CBD00E00FBD08E08F
:1000C0000EBD089500E002B9002703B908950FEFAF
:1000D00004BB01BB0ABB002705BB02BB0BBB0895D9
:1000E00007E207BB002708BB089564D307E017E0C9
:1000F0000F931F9321E06BD31F910F911A95C2F7B5
:100100000A95AAF704E6E7D417E007E00F931F93D8
:1001100022E05DD31F910F910A95C2F71A95AAF7B5
:1001200004E6D9D447D304E6D6D4E6ECF1E040ECBB
:10013000059115912591EF93FF934F9348D34F91DC
:10014000FF91EF910591C7D44A9591F7E6ECF4E061
:100150004EE00591159125913591EF93FF934F93C3
:1001600054D34F91FF91EF910491B5D40591B3D43D
:1001700031964A9571F7EAE1F5E048E0059115916D
:10018000259135910F931F93EF93FF934F933DD399
:100190004F91FF91EF910591502F9DD425911F9183
:1001A0000F91EF93FF934F935F9311D35F914F9113
:1001B000FF91EF91052F8FD44A9501F708E018E0E1
:1001C00024D393CF08950000010107070205010021
:1001D00001010607020500010101070602050002F0
:1001E00001010705020501010101060602050200E1
:1001F00001010507020503000101040702050201D0
:1002000001010506020501020101060502050003C0
:1002100001010704020500040101070302050103AF
:1002200001010604020502020101050502050301A0
:10023000010104060205040001010307020505008F
:100240000101020702050401010103060205030280
:100250000101040502050203010105040205010470
:10026000010106030205000501010702020500065F
:100270000101070102050105010106020205020450
:100280000101050302050303010104040205040240
:100290000101030502050501010102060205060030
:1002A000010101070205070001010007020506011F
:1002B0000101010602050502010102050205040310
:1002C0000101030402640007000A0006000101079F
:1002D000000A00050001010600010207000A0004EF
:1002E000000101050001020600010307000A0003E6
:1002F00000010104000102050001030600010407DA
:10030000000A0002000101030001020400010305CC
:100310000001040600010507000A000100010102B6
:1003200000010203000103040001040500010506A9
:1003300000010607000A000000010101000102029D
:100340000001030300010404000105050001060685
:1003500000010707000A0100000102010001030279
:100360000001040300010504000106050001070661
:10037000000A02000001030100010402000105035C
:100380000001060400010705000A03000001040142
:10039000000105020001060300010704000A040031
:1003A000000105010001060200010703000A050023
:1003B0000001060100010702000A06000001070112
:1003C000000A0700003200000101010001010200E3
:1003D0000101030000010400000105000201060004
:1003E00002010700020A00010101010101010201ED
:1003F00001010301000104010001050102010601E0
:1004000002010701020A00020101010201010202C8
:1004100001010302000104020001050202010602BB
:1004200002010702020A00030001010300010203A6
:100430000001030301010403010105030001060398
:1004400000010703000A0004000101040001020486
:100450000001030401010404010105040001060474
:1004600000010704000A000502010105020102055E
:10047000020103050001040500010505010106054F
:1004800001010705010A0006020101060201020638
:10049000020103060001040600010506010106062B
:1004A00001010706010A0007020101070201020714
:1004B0000201030700010407000105070101060707
:1004C00001010707016400000200FA0007070100AC
:1004D000FA0000070100FA0007000200FA00040415
:1004E0000201FA0001040201FA0005030001FA000A
:1004F00005050002FA0004060102FA0002050101E6
:10050000FA0003040202FA0000000000FA000804E6
:100510000201FA0000080201FA0000000200FA02DB
:1005200000070002FA0105030001FA0203050200B8
:10053000FA0107070000FA0207000000FA010000B4
:100540000200FA01FF93EF93DF93CF934F933F9312
:100550002F931F930F935F924F923F922F921F9270
:100560000F920FB60F92F8940E9414030E943F035B
:100570000E9474030E944C040F900FBE0F901F90B6
:100580002F903F904F905F900F911F912F913F912F
:100590004F91CF91DF91EF91FF911895C04000806E
:1005A000C0400080C0001808001018080010180093
:1005B0003FB6F8940091800110E0109380013FBE97
:1005C0000F3F08953FB6F8940091810110E0109319
:1005D00081013FBE0F3F08953FB6F894009182011C
:1005E00010E0109382013FBE0F3F08953FB6F8948C
:1005F0000091830110E0109383013FBE0F3F0895E7
:100600003FB6F8940091850110E0109385013FBE3C
:100610000F3F08953FB6F8940091840110E01093C5
:1006200084013FBE0F3F0895A2D021F00AE000935D
:1006300088010FC0009188010A950093880111F08C
:100640002AF007C00FEF0093800103C0002700933A
:10065000880190D021F00AE0009389010FC0009139
:1006600089010A950093890111F02AF007C00FEF64
:100670000093810103C000270093890108957DD074
:10068000102E0091860165D0101469F10091860149
:1006900003955FD0101451F0009186010A9559D04E
:1006A000101451F004E0009386011DC000918601F2
:1006B00003950093860105C0009186010A95009379
:1006C0008601083019F0003041F00DC00FEF0093A3
:1006D000830104E00093860106C00FEF00938201BE
:1006E00004E00093860108954BD0102E00918701FD
:1006F00037D0101469F100918701039531D010149F
:1007000051F0009187010A952BD0101451F004E0AC
:10071000009387011DC00091870103950093870115
:1007200005C0009187010A9500938701083019F0F0
:10073000003041F00DC00FEF0093850104E00093FD
:10074000870106C00FEF0093840104E00093870146
:100750000895F5E0ECE91127E00FF11FC895089521
:10076000F5E0E6EA1127E00FF11FC895089501B101
:100770000072089501B10470089501B1007C0895DC
:1007800001B10871089500E0009380010093810198
:1007900000938201009383010093850100938401FB
:1007A000009388010093890104E00093860100937F
:1007B0008701089500271127EAE8F1E010311CF4C1
:1007C00001931395FBCF0FEF102F1FD0089500302A
:1007D000DAF00830C8F41030BAF01830A8F420303D
:1007E0009AF0243088F4CBD0D4D020FF02C0422825
:1007F00001C04320408208E0100FCBD021FF02C08F
:10080000422801C043204082089500303AF0083069
:1008100028F410301AF0183008F406C01FEF1093B7
:100820009E0110939F0126C010939E0148E0140F73
:1008300010939F01A4D03092A201002720FD03C095
:100840000093A30102C02092A30130FD03C00093D6
:10085000A40102C02092A40121FD03C00093A501C0
:1008600002C02092A50131FD03C00093A60102C081
:100870002092A60108950093A7010895CAE8D1E047
:100880000027083044F41591188328961591188391
:1008900027970395F6CF089510919A017AD03327C0
:1008A00000919E01011731F000919F01011333C0A7
:1008B0002FEF02C020E000C00091A2014022509022
:1008C0009D0111E051120AC0231304C00091A3013D
:1008D000402A0EC00091A501402A0AC0231304C07B
:1008E0000091A401402A04C00091A601402A00C042
:1008F000C091A001D091A101219749F4C4E6D0E0B4
:10090000C093A001D093A101509450929D01C09337
:10091000A001D093A1010091A7010023C1F0009193
:10092000A801222702134424C091A901D091AA0151
:10093000219749F4C4EFD1E0C093A901D093AA0153
:1009400000950093A801C093A901D093AA0110912A
:100950009B0100919C0145BA12BB0BBB110F07957F
:1009600020919A012395203118F0222700E011E010
:1009700000939C0110939B0120939A01089540E8F5
:10098000003019F046950A95FBCF242E322C309476
:1009900008954424EAE8F1E0E10FF41D4080089551
:1009A00009DF11E000E010939B0100939C010027F8
:1009B00000939A010093A3010093A4010093A50161
:1009C0000093A6010093A7010093A801C4EFD1E012
:1009D000C093A901D093AA01C4E6D0E0C093A001BE
:1009E000D093A1010FEF0093A20101E000939D01BC
:1009F0000FEF00939E0100939F0108952227021795
:100A0000120731F400E00FBD08E00EBDC6980FC01C
:100A100020E231EA47E066D000272150300B0DBDBF
:100A20000CBD3BBD2ABD00E40FBD0AE00EBD08951C
:100A3000059115912F93F894E1DF78942F91A5916A
:100A4000B59142D02A95A1F700271127D7DF089545
:100A5000C400A6000601A6004A01A6008801A6005F
:100A60000B02A6009302A6001003F4019302F40106
:100A7000A500A6000601A6003701A6009F01A6005A
:100A80000B02A6006E02A6003F03F4016E02F40101
:100A9000E900A6002601A6005D01A600D201A6007D
:100AA0004B02A600BA02A600A403F4010000320023
:100AB000A403A60000003200A403A6000000320038
:100AC000A403A6001704EE02C0EDD7E02197F1F7CA
:100AD0001197D1F70895C0E2DEE42197F1F70A9566
:100AE000D1F7089568E133242224221F331F441FC5
:100AF000221C331C2016310610F0201A310A6A9588
:100B0000A1F7221F331F441F20953095409508956B
:00000001FF
