:020000020000FC
:100000000C9446000C9402000C9404000C9406001E
:100010000C9408000C940A000C940C000C940E0034
:100020000C9410000C947A000C9414000C9416009C
:100030000C9418000C941A000C941C000C941E00D4
:100040000C9420000C9422000C9424000C942600A4
:100050000C9428000C942A000C942C000C942E0074
:100060000C9430000C9432000C9434000C94360044
:100070000C9438000C943A000C943C000C943E0014
:100080000C9440000C9442000C9444000FE70DBF08
:1000900001E00EBF2AD013D07894E0E0F6E02EE124
:1000A0009FD20FEFF0D2F9CFF1CF00E00093230001
:1000B00000270093240003E40093250008950027FF
:1000C0000DBD0CBD00E00FBD08E00EBD089500E0C1
:1000D00002B9002703B908950FEF04BB01BB0ABBA7
:1000E000002705BB02BB0BBB089507E207BB002737
:1000F00008BB0895FF93EF93DF93CF934F933F9304
:100100002F931F930F935F924F923F922F921F92C4
:100110000F920FB60F92F8940E94EC000E94170104
:100120000E944C010E9424020F900FBE0F901F905E
:100130002F903F904F905F900F911F912F913F9183
:100140004F91CF91DF91EF91FF911895C0400080C2
:10015000C0400080C00018080010180800101800E7
:100160003FB6F8940091800110E0109380013FBEEB
:100170000F3F08953FB6F8940091810110E010936D
:1001800081013FBE0F3F08953FB6F8940091820170
:1001900010E0109382013FBE0F3F08953FB6F894E0
:1001A0000091830110E0109383013FBE0F3F08953B
:1001B0003FB6F8940091850110E0109385013FBE91
:1001C0000F3F08953FB6F8940091840110E010931A
:1001D00084013FBE0F3F0895A2D021F00AE00093B2
:1001E00088010FC0009188010A950093880111F0E1
:1001F0002AF007C00FEF0093800103C0002700938F
:10020000880190D021F00AE0009389010FC000918D
:1002100089010A950093890111F02AF007C00FEFB8
:100220000093810103C000270093890108957DD0C8
:10023000102E0091860165D0101469F1009186019D
:1002400003955FD0101451F0009186010A9559D0A2
:10025000101451F004E0009386011DC00091860146
:1002600003950093860105C0009186010A950093CD
:100270008601083019F0003041F00DC00FEF0093F7
:10028000830104E00093860106C00FEF0093820112
:1002900004E00093860108954BD0102E0091870151
:1002A00037D0101469F100918701039531D01014F3
:1002B00051F0009187010A952BD0101451F004E001
:1002C000009387011DC0009187010395009387016A
:1002D00005C0009187010A9500938701083019F045
:1002E000003041F00DC00FEF0093850104E0009352
:1002F000870106C00FEF0093840104E0009387019B
:100300000895F1E0ECE41127E00FF11FC89508957E
:10031000F1E0E6E51127E00FF11FC895089501B15E
:100320000072089501B10470089501B1007C089530
:1003300001B10871089500E00093800100938101EC
:10034000009382010093830100938501009384014F
:10035000009388010093890104E0009386010093D3
:100360008701089500271127EAE8F1E010311CF415
:1003700001931395FBCF0FEF102F1FD0089500307E
:10038000DAF00830C8F41030BAF01830A8F4203091
:100390009AF0243088F4CBD0D4D020FF02C0422879
:1003A00001C04320408208E0100FCBD021FF02C0E3
:1003B000422801C043204082089500303AF00830BE
:1003C00028F410301AF0183008F406C01FEF10930C
:1003D0009E0110939F0126C010939E0148E0140FC8
:1003E00010939F01A4D03092A201002720FD03C0EA
:1003F0000093A30102C02092A30130FD03C000932B
:10040000A40102C02092A40121FD03C00093A50114
:1004100002C02092A50131FD03C00093A60102C0D5
:100420002092A60108950093A7010895CAE8D1E09B
:100430000027083044F415911883289615911883E5
:1004400027970395F6CF089510919A017AD0332714
:1004500000919E01011731F000919F01011333C0FB
:100460002FEF02C020E000C00091A2014022509076
:100470009D0111E051120AC0231304C00091A30191
:10048000402A0EC00091A501402A0AC0231304C0CF
:100490000091A401402A04C00091A601402A00C096
:1004A000C091A001D091A101219749F4C4E6D0E008
:1004B000C093A001D093A101509450929D01C0938C
:1004C000A001D093A1010091A7010023C1F00091E8
:1004D000A801222702134424C091A901D091AA01A6
:1004E000219749F4C4EFD1E0C093A901D093AA01A8
:1004F00000950093A801C093A901D093AA0110917F
:100500009B0100919C0145BA12BB0BBB110F0795D3
:1005100020919A012395203118F0222700E011E064
:1005200000939C0110939B0120939A01089540E849
:10053000003019F046950A95FBCF242E322C3094CA
:1005400008954424EAE8F1E0E10FF41D40800895A5
:1005500009DF11E000E010939B0100939C0100274C
:1005600000939A010093A3010093A4010093A501B5
:100570000093A6010093A7010093A801C4EFD1E066
:10058000C093A901D093AA01C4E6D0E0C093A00112
:10059000D093A1010FEF0093A20101E000939D0110
:1005A0000FEF00939E0100939F01089522270217E9
:1005B000120731F400E00FBD08E00EBDC6980FC071
:1005C00020E231EA47E066D000272150300B0DBD14
:1005D0000CBD3BBD2ABD00E40FBD0AE00EBD089571
:1005E000059115912F93F894E1DF78942F91A591BF
:1005F000B59142D02A95A1F700271127D7DF08959A
:10060000C400A6000601A6004A01A6008801A600B3
:100610000B02A6009302A6001003F4019302F4015A
:10062000A500A6000601A6003701A6009F01A600AE
:100630000B02A6006E02A6003F03F4016E02F40155
:10064000E900A6002601A6005D01A600D201A600D1
:100650004B02A600BA02A600A403F4010000320077
:10066000A403A60000003200A403A600000032008C
:10067000A403A6001704EE02C0EDD7E02197F1F71E
:100680001197D1F70895C0E2DEE42197F1F70A95BA
:10069000D1F7089568E133242224221F331F441F19
:1006A000221C331C2016310610F0201A310A6A95DC
:1006B000A1F7221F331F441F2095309540950895C0
:00000001FF
