:020000020000FC
:100000000C9446000C9402000C9404000C9406001E
:100010000C9408000C940A000C940C000C940E0034
:100020000C9410000C9412000C9414000C94160004
:100030000C9418000C941A000C941C000C94990059
:100040000C9420000C9422000C9424000C942600A4
:100050000C9428000C942A000C942C000C942E0074
:100060000C9430000C9432000C9434000C94360044
:100070000C9438000C943A000C943C000C943E0014
:100080000C9440000C9442000C9444000FE70DBF08
:1000900001E00EBF0FD018D03BD043D0DCD246D009
:1000A00085D07894E0E6F7E026E046D30FEFABD3B7
:1000B000F9CFECCF0EE003BF002702BF0FE101BF75
:1000C00007B7026007BF089500270DBD0CBD00E013
:1000D0000FBD08E00EBD08950FE1009387000FE308
:1000E000009386000027009389000093880000E0B9
:1000F00000938B0009E000938A0000917D0000616D
:1001000000937D00089500E002B9002703B9089527
:100110000FEF04BB01BB0ABB002705BB02BB0BBB37
:10012000089507E207BB002708BB089501E50DB954
:100130000895FF93EF93DF93CF934F933F932F93C4
:100140001F930F935F924F923F922F921F920F92A5
:100150000FB60F92F8940E9447010E9472010E940C
:10016000A7010E94B1020F900FBE0F901F902F9019
:100170003F904F905F900F911F912F913F914F9122
:10018000CF91DF91EF91FF911895FF93EF934F93EC
:100190003F932F931F930F93F8940F911F912F91DB
:1001A0003F914F91EF91FF911895FFCFC0E9D1E0BA
:1001B00008E010E01F930F9396D20F911F91100F3C
:1001C000C8E9D1E090D2002711270830B4F4E0E963
:1001D000F1E0E00FF11F2081322F3095E8E9F1E0E6
:1001E000E00FF11F408124233423E0E8F1E0E00F29
:1001F000F11F208330870395E8CFE0E8F1E0A7D135
:100200000895C0400080C0400080C0001808001061
:100210001808001018003FB6F8940091A00110E0F3
:100220001093A0013FBE0F3F08953FB6F894009190
:10023000A10110E01093A1013FBE0F3F08953FB60A
:10024000F8940091A20110E01093A2013FBE0F3F6D
:1002500008953FB6F8940091A30110E01093A30114
:100260003FBE0F3F08953FB6F8940091A50110E0FE
:100270001093A5013FBE0F3F08953FB6F89400913B
:10028000A40110E01093A4013FBE0F3F0895A2D037
:1002900021F00AE00093A8010FC00091A8010A957F
:1002A0000093A80111F02AF007C00FEF0093A001FE
:1002B00003C000270093A80190D021F00AE000932A
:1002C000A9010FC00091A9010A950093A90111F09D
:1002D0002AF007C00FEF0093A10103C0002700938D
:1002E000A90108957DD0102E0091A60165D01014AB
:1002F00069F10091A60103955FD0101451F00091AF
:10030000A6010A9559D0101451F004E00093A601FB
:100310001DC00091A60103950093A60105C00091A0
:10032000A6010A950093A601083019F0003041F0AB
:100330000DC00FEF0093A30104E00093A60106C0D7
:100340000FEF0093A20104E00093A60108954BD0A3
:10035000102E0091A70137D0101469F10091A70168
:10036000039531D0101451F00091A7010A952BD0BC
:10037000101451F004E00093A7011DC00091A701E3
:1003800003950093A70105C00091A7010A9500936A
:10039000A701083019F0003041F00DC00FEF0093B5
:1003A000A50104E00093A70106C00FEF0093A4018C
:1003B00004E00093A7010895F2E0E2E01127E00FC6
:1003C000F11FC8950895F2E0ECE01127E00FF11F4E
:1003D000C895089501B10072089501B1047008959F
:1003E00001B1007C089501B10871089500E0009307
:1003F000A0010093A1010093A2010093A301009327
:10040000A5010093A4010093A8010093A90104E0B1
:100410000093A6010093A701089500271127EAEA97
:10042000F1E010311CF401931395FBCF0FEF102F67
:1004300047D008950FEF1127EAEAF1E018301CF4D5
:1004400001931395FBCF00E0112718301CF40193A2
:100450001395FBCF0FEF1FEF33D0089500E0112766
:10046000EAEAF1E018301CF401931395FBCF0FEF8B
:10047000112718301CF401931395FBCF0FEF1FEFDA
:100480001FD008950030DAF00830C8F41030BAF008
:100490001830A8F420309AF0243088F4D1D1D4D088
:1004A00020FF02C0422801C04320408208E0100F14
:1004B000CBD021FF02C0422801C0432040820895D2
:1004C00000303AF0083028F410301AF0183008F4F0
:1004D00006C01FEF1093BE011093BF0126C01093FA
:1004E000BE0148E0140F1093BF01AAD13092C2019F
:1004F000002720FD03C00093C30102C02092C30166
:1005000030FD03C00093C40102C02092C40121FD4C
:1005100003C00093C50102C02092C50131FD03C094
:100520000093C60102C02092C60108950093C7013E
:100530000895CAEAD1E00027083044F415911883E1
:1005400028961591188327970395F6CF0895CAEA40
:10055000D1E00027003124F4119119930395FACFCB
:1005600008951091BA0170D033270091BE01011790
:1005700031F00091BF01011333C02FEF02C020E022
:1005800000C00091C20140225090BD0111E0511203
:100590000AC0231304C00091C301402A0EC0009179
:1005A000C501402A0AC0231304C00091C401402A97
:1005B00004C00091C601402A00C0C091C001D09182
:1005C000C101219749F4C4E6D0E0C093C001D093A3
:1005D000C10150945092BD01C093C001D093C1019C
:1005E0000091C7010023C1F00091C8012227021326
:1005F0004424C091C901D091CA01219749F4C4EFA4
:10060000D1E0C093C901D093CA0100950093C801FD
:10061000C093C901D093CA011091BB010091BC01E4
:1006200045BA12BB0BBB110F07952091BA01239558
:10063000203118F0222700E011E00093BC01109354
:10064000BB012093BA0108954424EAEAF1E0E10FE6
:10065000F41D40800895E1DE11E000E01093BB013D
:100660000093BC0100270093BA010093C3010093DB
:10067000C4010093C5010093C6010093C701009314
:10068000C801C4EFD1E0C093C901D093CA01C4E648
:10069000D0E0C093C001D093C1010FEF0093C2011D
:1006A00001E00093BD010FEF0093BE010093BF0175
:1006B000089522270217120731F400E00FBD08E069
:1006C0000EBDC6980FC020E231EA47E0A3D0002754
:1006D0002150300B0DBD0CBD3BBD2ABD00E40FBD4C
:1006E0000AE00EBD089541E041231695003069F0FF
:1006F0000DD040FD03C039930A9501C04427003056
:1007000021F029930A951395F1CF0895C09A26E018
:1007100027952FB90ED0212F220F2F772FB909D06F
:1007200020E02FB906D03FB12FB903D02FB1C09828
:100730000895779BFECF0895059115912F93F89416
:10074000B8DF78942F91A591B59156D02A95A1F74D
:1007500000271127AEDF089500000100FFFF000011
:1007600027057D0020067D004D0A7D002D087D00B7
:100770002D097D00400C7D0000000000C400A60093
:100780000601A6004A01A6008801A6000B02A600E9
:100790009302A6001003F4019302F401A500A60041
:1007A0000601A6003701A6009F01A6000B02A600C5
:1007B0006E02A6003F03F4016E02F401E900A600F8
:1007C0002601A6005D01A600D201A6004B02A600EC
:1007D000BA02A600A403F40100003200A403A6009C
:1007E00000003200A403A60000003200A403A6000B
:1007F0001704EE0200000000C0EDD7E02197F1F7EA
:100800001197D1F70895C0E2DEE42197F1F70A9538
:10081000D1F7089568E133242224221F331F441F97
:10082000221C331C2016310610F0201A310A6A955A
:10083000A1F7221F331F441F20953095409508953E
:1008400040E8003019F046950A95FBCF242E322C53
:040850003094089543
:00000001FF
