:020000020000FC
:100000000C9446000C9402000C9404000C9406001E
:100010000C9408000C940A000C940C000C940E0034
:100020000C9410000C9412000C9414000C94160004
:100030000C9418000C941A000C941C000C94990059
:100040000C9420000C9422000C9424000C942600A4
:100050000C9428000C942A000C942C000C942E0074
:100060000C9430000C9432000C9434000C94360044
:100070000C9438000C943A000C943C000C943E0014
:100080000C9440000C9442000C9444000FE70DBF08
:1000900001E00EBF0FD018D03BD043D056D346D08E
:1000A0009AD07894ECE4F8E023E0C0D30FEF29D4A1
:1000B000F9CFECCF0EE003BF002702BF0FE101BF75
:1000C00007B7026007BF089500270DBD0CBD00E013
:1000D0000FBD08E00EBD08950FE1009387000FE308
:1000E000009386000027009389000093880000E0B9
:1000F00000938B0009E000938A0000917D0000616D
:1001000000937D00089500E002B9002703B9089527
:100110000FEF04BB01BB0ABB002705BB02BB0BBB37
:10012000089507E207BB002708BB089501E50DB954
:100130000895FF93EF93DF93CF934F933F932F93C4
:100140001F930F935F924F923F922F921F920F92A5
:100150000FB60F920E94CB010E94F6010E942B0263
:100160000E942B030F900FBE0F901F902F903F9077
:100170004F905F900F911F912F913F914F91CF9191
:10018000DF91EF91FF911895FF93EF936F934F934A
:100190003F932F931F930F933F922F920F920F90A5
:1001A0002F903F900F911F912F913F914F916F9101
:1001B000EF91FF9118950091300100FF01D0FBCF26
:1001C000009182011091830187D0A9D019F4322FB8
:1001D000239523300895C4E9D1E008E010E01F938F
:1001E0000F93FBD20F911F91100FCCE9D1E0F5D204
:1001F000002711270830B4F4E4E9F1E0E00FF11F23
:100200002081322F3095ECE9F1E0E00FF11F4081C1
:1002100024233423E4E8F1E0E00FF11F208330874A
:100220000395E8CFE4E8F1E00CD2002700938001C9
:1002300000938101009383010093820108950FEFE1
:10024000112728E03FEF18304CF458D0542C120FEF
:1002500055D05420531200271750F5CF0F3F089563
:100260000FEF112718306CF449D05524E4E9F1E080
:10027000E10FF51D50805424552009F000271395F7
:10028000F1CF0F3F0895083068F4183058F456D372
:100290000027ECE9F1E0E10FF01F108112211013AB
:1002A0000FEF00C00F3F08950830A8F4183098F4FD
:1002B000243088F443D322D020FF02C0422801C05A
:1002C0004320408208E0100F19D021FF02C04228CD
:1002D00001C0432040820895083070F4183060F463
:1002E0002DD30CD0422009F021E008E0100F06D0F9
:1002F000422019F0226001C02FEF08954424E4E861
:10030000F1E0E10FF41D40800895C0400080C0403E
:100310000080C000180800101808001018003FB630
:10032000F8940091A40110E01093A4013FBE0F3F88
:1003300008953FB6F8940091A50110E01093A5012F
:100340003FBE0F3F08953FB6F8940091A60110E01C
:100350001093A6013FBE0F3F08953FB6F894009159
:10036000A70110E01093A7013FBE0F3F08953FB6CD
:10037000F8940091A90110E01093A9013FBE0F3F2E
:1003800008953FB6F8940091A80110E01093A801D9
:100390003FBE0F3F0895A2D021F00AE00093AC01C8
:1003A0000FC00091AC010A950093AC0111F02AF046
:1003B00007C00FEF0093A40103C000270093AC0116
:1003C00090D021F00AE00093AD010FC00091AD0183
:1003D0000A950093AD0111F02AF007C00FEF0093CA
:1003E000A50103C000270093AD0108957DD0102E14
:1003F0000091AA0165D0101469F10091AA0103953A
:100400005FD0101451F00091AA010A9559D0101430
:1004100051F004E00093AA011DC00091AA010395C8
:100420000093AA0105C00091AA010A950093AA01B0
:10043000083019F0003041F00DC00FEF0093A70114
:1004400004E00093AA0106C00FEF0093A60104E0A8
:100450000093AA0108954BD0102E0091AB0137D024
:10046000101469F10091AB01039531D0101451F0D3
:100470000091AB010A952BD0101451F004E00093C9
:10048000AB011DC00091AB0103950093AB0105C00A
:100490000091AB010A950093AB01083019F00030D0
:1004A00041F00DC00FEF0093A90104E00093AB01F0
:1004B00006C00FEF0093A80104E00093AB0108957C
:1004C000F3E0EAE01127E00FF11FC8950895F3E08B
:1004D000E4E11127E00FF11FC895089501B1007202
:1004E000089501B10470089501B1007C089501B12F
:1004F0000871089500E00093A4010093A501009302
:10050000A6010093A7010093A9010093A8010093FD
:10051000AC010093AD0104E00093AA010093AB018C
:10052000089500271127EEEAF1E010311CF4019341
:100530001395FBCF0FEF102F41D008950FEF112728
:10054000EEEAF1E018301CF401931395FBCF00E0C4
:10055000112718301CF401931395FBCF0FEF1FEFF9
:100560002DD0089500E01127EEEAF1E018301CF4D8
:1005700001931395FBCF0FEF112718301CF4019353
:100580001395FBCF0FEF1FEF19D008950830A8F493
:10059000183098F4243088F4D1D1D0D020FF02C094
:1005A000422801C04320408208E0100FC7D021FF3D
:1005B00002C0422801C0432040820895083018F448
:1005C000183008F406C01FEF1093C2011093C30146
:1005D00026C01093C20148E0140F1093C301AED19E
:1005E0003092C601002720FD03C00093C70102C05E
:1005F0002092C70130FD03C00093C80102C02092C1
:10060000C80121FD03C00093C90102C02092C901A5
:1006100031FD03C00093CA0102C02092CA010895AF
:100620000093CB010895CEEAD1E00027083044F4CE
:100630001591188328961591188327970395F6CF5F
:100640000895CEEAD1E00027003124F411911993E6
:100650000395FACF08951091BE0170D03327009111
:10066000C201011731F00091C301011333C02FEF14
:1006700002C020E000C00091C60140225090C1019C
:1006800011E051120AC0231304C00091C701402A8F
:100690000EC00091C901402A0AC0231304C0009172
:1006A000C801402A04C00091CA01402A00C0C0917C
:1006B000C401D091C501219749F4C4E6D0E0C093AC
:1006C000C401D093C50150945092C101C093C4019C
:1006D000D093C5010091CB010023C1F00091CC0162
:1006E000222702134424C091CD01D091CE0121973D
:1006F00049F4C4EFD1E0C093CD01D093CE01009571
:100700000093CC01C093CD01D093CE011091BF01D5
:100710000091C00145BA12BB0BBB110F0795209188
:10072000BE012395203118F0222700E011E000934C
:10073000C0011093BF012093BE0108954424EEEA46
:10074000F1E0E10FF41D40800895EBDE11E000E0E0
:100750001093BF010093C00100270093BE010093D6
:10076000C7010093C8010093C9010093CA01009317
:10077000CB010093CC01C4EFD1E0C093CD01D09365
:10078000CE01C4E6D0E0C093C401D093C5010FEF01
:100790000093C60101E00093C1010FEF0093C20175
:1007A0000093C301089522270217120731F400E0D5
:1007B0000FBD08E00EBDC6980FC020E231EA47E049
:1007C000A7D000272150300B0DBD0CBD3BBD2ABD6D
:1007D00000E40FBD0AE00EBD089541E041231695E7
:1007E000003069F00DD040FD03C039930A9501C077
:1007F0004427003021F029930A951395F1CF0895ED
:10080000C09A26E027952FB90ED0212F220F2F77DF
:100810002FB909D020E02FB906D03FB12FB903D0AE
:100820002FB1C0980895779BFECF0895059115913B
:100830002F93F894B8DF78942F91A591B5915AD061
:100840002A95A1F700271127AEDF0895C40096006E
:1008500000003200C40096000000000027057D0063
:1008600020067D004D0A7D002D087D002D097D00AC
:10087000400C7D0000000000C400A6000601A60098
:100880004A01A6008801A6000B02A6009302A6005A
:100890001003F4019302F401A500A6000601A600CE
:1008A0003701A6009F01A6000B02A6006E02A6005B
:1008B0003F03F4016E02F401E900A6002601A60040
:1008C0005D01A600D201A6004B02A600BA02A60056
:1008D000A403F40100003200A403A60000003200CB
:1008E000A403A60000003200A403A6001704EE0231
:1008F00000000000C0EDD7E02197F1F71197D1F784
:100900000895C0E2DEE42197F1F70A95D1F7089542
:1009100068E133242224221F331F441F221C331C6E
:100920002016310610F0201A310A6A95A1F7221F0D
:10093000331F441F209530954095089540E80030BE
:1009400019F046950A95FBCF242E322C3094089549
:00000001FF
