:020000020000FC
:100000000C9446000C9402000C9404000C9406001E
:100010000C9408000C940A000C940C000C940E0034
:100020000C9410000C9412000C9414000C94160004
:100030000C9418000C941A000C941C000C941E00D4
:100040000C9420000C9422000C9424000C942600A4
:100050000C9428000C942A000C942C000C942E0074
:100060000C9430000C9432000C94A4020C943600D2
:100070000C9438000C943A000C943C000C943E0014
:100080000C9440000C9442000C9444000FE70DBF08
:1000900001E00EBF39D241D270D3789401D0F6CFAF
:1000A00072D207E017E00F931F9321E079D21F91DE
:1000B0000F911A95C2F70A95AAF704E65FD017E0E8
:1000C00007E00F931F9322E06BD21F910F910A95C7
:1000D000C2F71A95AAF704E651D055D204E64ED0DD
:1000E000EAE8F1E040EC059115912591EF93FF933B
:1000F0004F9356D24F91FF91EF9105913FD04A9582
:1001000091F7EAE8F4E04EE00591159125913591DB
:10011000EF93FF934F9362D24F91FF91EF91049130
:100120002DD005912BD031964A9571F7EEEDF4E084
:1001300048E005911591259135910F931F93EF9309
:10014000FF934F934BD24F91FF91EF910591502F19
:1001500015D025911F910F91EF93FF934F935F93CC
:100160001FD25F914F91FF91EF91052F07D04A95D4
:1001700001F708E018E032D293CF0895C0E2DEE440
:100180002197F1F70A95D1F70895000001010707BB
:100190000205010001010607020500010101070631
:1001A0000205000201010705020501010101060621
:1001B0000205020001010507020503000101040711
:1001C0000205020101010506020501020101060501
:1001D00002050003010107040205000401010703F1
:1001E00002050103010106040205020201010505E1
:1001F00002050301010104060205040001010307D1
:1002000002050500010102070205040101010306C0
:1002100002050302010104050205020301010504B0
:1002200002050104010106030205000501010702A0
:100230000205000601010701020501050101060290
:100240000205020401010503020503030101040480
:100250000205040201010305020505010101020670
:100260000205060001010107020507000101000760
:100270000205060101010106020505020101020550
:10028000020504030101030402640007000A0006DA
:1002900000010107000A0005000101060001020734
:1002A000000A000400010105000102060001030725
:1002B000000A000300010104000102050001030619
:1002C00000010407000A000200010103000102040A
:1002D000000103050001040600010507000A0001F2
:1002E00000010102000102030001030400010405F2
:1002F0000001050600010607000A000000010101D7
:1003000000010202000103030001040400010505CD
:100310000001060600010707000A010000010201B2
:1003200000010302000104030001050400010605A9
:1003300000010706000A0200000103010001040297
:10034000000105030001060400010705000A03007F
:100350000001040100010502000106030001070479
:10036000000A040000010501000106020001070364
:10037000000A05000001060100010702000A06004C
:1003800000010701000A070000320000010101001E
:100390000101020001010300000104000001050049
:1003A0000201060002010700020A00010101010129
:1003B0000101020101010301000104010001050125
:1003C0000201060102010701020A00020101010205
:1003D0000101020201010302000104020001050201
:1003E0000201060202010702020A000300010103E2
:1003F00000010203000103030101040301010503DD
:100400000001060300010703000A000400010104C3
:1004100000010204000103040101040401010504B8
:100420000001060400010704000A0005020101059D
:100430000201020502010305000104050001050592
:100440000101060501010705010A00060201010676
:10045000020102060201030600010406000105066E
:100460000101060601010706010A00070201010752
:10047000020102070201030700010407000105074A
:100480000101060701010707016400000200FA00EC
:1004900007070100FA0000070100FA000700020048
:1004A000FA0004040201FA0001040201FA00050343
:1004B0000001FA0005050002FA0004060102FA0034
:1004C00002050101FA0003040202FA000000000024
:1004D000FA0008040201FA0000080201FA00000014
:1004E0000200FA0200070002FA0105030001FA0205
:1004F00003050200FA0107070000FA0207000000E6
:10050000FA0100000200FA010FEF04BB01BB0ABBB5
:10051000002705BB02BB0BBB08950FE100938700CA
:100520000FE3009386000027009389000093880062
:1005300000E000938B0009E000938A0000917D00A9
:10054000006100937D000895FF93EF93DF93CF93B5
:100550004F933F932F931F930F934F923F922F925E
:100560002FB62F92F89481D02F902FBE2F903F90CE
:100570004F900F911F912F913F914F91CF91DF910C
:10058000EF91FF91189500271127E0E8F1E0103175
:100590001CF401931395FBCF0FEF102F1FD008957C
:1005A0000030DAF00830C8F41030BAF01830A8F48F
:1005B00020309AF0243088F4CFD0D8D020FF02C069
:1005C000422801C04320408208E0100FCFD021FF15
:1005D00002C0422801C043204082089500303AF012
:1005E000083028F410301AF0183008F406C01FEF55
:1005F000109394011093950126C01093940148E044
:10060000140F10939501A8D030929801002720FD77
:1006100003C00093990102C02092990130FD03C0EC
:1006200000939A0102C020929A0121FD03C0009319
:100630009B0102C020929B0131FD03C000939C01ED
:1006400002C020929C01089500939D010895C0E886
:10065000D1E00027083044F41591188328961591AD
:10066000188327970395F6CF0895109190017ED0B7
:10067000332700919401011731F000919501011386
:1006800035C02FEF02C020E000C000919801402249
:100690006090930111E061120AC0231304C000911D
:1006A0009901402A0EC000919B01402A0AC02313E1
:1006B00004C000919A01402A04C000919C01402A84
:1006C00000C0C0919601D09197012196309187008A
:1006D00020910000C317D20729F4DD27CC276094AE
:1006E00060929301C0939601D093970100919D0170
:1006F0000023D1F000919E01222702134424C091CF
:100700009F01D091A00121963091FA002091000024
:10071000C317D20729F4CC27DD27009500939D014C
:10072000C0939F01D093A00110919101009192017B
:1007300045BA12BB0BBB110F079520919001239571
:10074000203118F0222700E011E00093920110936D
:10075000910120939001089540E8003019F04695EA
:100760000A95FBCF242E322C309408954424E0E8DF
:10077000F1E0E10FF41D4080089505DF11E000E095
:100780001093910100939201002700939001009330
:10079000990100939A0100939B0100939C0100939F
:1007A00096010093970100939D0100939E01009391
:1007B0009F010093A0010FEF0093980145DF01E036
:1007C000009393010FEF0093940100939501089516
:00000001FF
