:020000020000FC
:100000000C9446000C9402000C9404000C9406001E
:100010000C9408000C940A000C940C000C940E0034
:100020000C9410000C9412000C9414000C94160004
:100030000C9418000C941A000C941C000C941E00D4
:100040000C9420000C9422000C9424000C942600A4
:100050000C9428000C942A000C942C000C942E0074
:100060000C9430000C9432000C9434000C94360044
:100070000C9438000C943A000C943C000C943E0014
:100080000C9440000C9442000C9444000FE70DBF08
:1000900001E00EBF07D00BD078944DD00FEF16D0F3
:1000A000FCCFF4CF07E207BB002708BB0895002769
:1000B0000DBD0CBD00E00FBD08E00EBD0895C0ED04
:1000C000D7E02197F1F71197D1F70895C0E2DEE468
:1000D0002197F1F70A95D1F7089522270217120701
:1000E00031F400E00FBD08E00EBDC6980DC020E25F
:1000F00031EA47E00AD000272150300B3BBD2ABD32
:1001000000E40FBD0AE00EBD089568E13324222407
:10011000221F331F441F221C331C2016310610F0EF
:10012000201A310A6A95A1F7221F331F441F209518
:10013000309540950895E4E7F1E04EE10591159181
:10014000EF93FF934F93C9DF4F91FF91EF91000021
:100150000000000000000000A591B591B0DF000094
:1001600000000000000000004A9541F70027112719
:10017000B4DF0895C400A6000601A6004A01A60047
:100180008801A6000B02A6009302A6001003F4014A
:100190009302F401A500A6000601A6003701A600FF
:1001A0009F01A6000B02A6006E02A6003F03F40109
:1001B0006E02F401E900A6002601A6005D01A6007A
:1001C000D201A6004B02A600BA02A600A403F401C5
:1001D00000003200A403A60000003200A403A60021
:0C01E00000003200A403A6001704EE0289
:00000001FF
