:020000020000FC
:100000000C9446000C9402000C9404000C9406001E
:100010000C9408000C940A000C940C000C940E0034
:100020000C9410000C9412000C9414000C94160004
:100030000C9418000C941A000C941C000C941E00D4
:100040000C9420000C9422000C9424000C942600A4
:100050000C9428000C942A000C942C000C942E0074
:100060000C9430000C9432000C94C0000C943600B8
:100070000C9438000C943A000C943C000C943E0014
:100080000C9440000C9442000C9444000FE70DBF08
:1000900002E00EBF59D05DD084D1789401D0F6CF64
:1000A00044244F9293D04F9041F402E345D04F92B5
:1000B0008DD04F9011F00FEF3FD04F9291D04F90D5
:1000C00041F401E339D04F928BD04F9011F00FEFF4
:1000D00033D04F928FD04F9041F40CE42DD04F92FB
:1000E00089D04F9011F00FEF27D04F928DD04F90C5
:1000F00041F402E521D04F9287D04F9011F00FEFDD
:100100001BD04F9295D04F9041F405E515D04F92FA
:100110008FD04F9011F00FEF0FD04F927FD04F90B4
:1001200041F404E409D04F9279D04F9011F00FEFD1
:1001300003D00C9451000895C0E0D1E010E0C40D4C
:10014000D11F08834394089500E002B9002703B942
:1001500008950FE10093870000E4009386000027D4
:10016000009389000093880000E000938B0009E071
:1001700000938A0000917D00006100937D00089546
:10018000FF93EF93DF93CF931F930F934F920F92B1
:100190000FB60F92F8940E9422010E944D010E9416
:1001A00082010F900FBE0F904F900F911F91CF9132
:1001B000DF91EF91FF911895C0400080C040008012
:1001C000C000180800101808001018003FB6F89476
:1001D0000091800210E0109380023FBE0F3F08950F
:1001E0003FB6F8940091810210E0109381023FBE67
:1001F0000F3F08953FB6F8940091820210E01093EB
:1002000082023FBE0F3F08953FB6F89400918302EB
:1002100010E0109383023FBE0F3F08953FB6F8945D
:100220000091850210E0109385023FBE0F3F0895B4
:100230003FB6F8940091840210E0109384023FBE10
:100240000F3F0895A2D021F00EE1009388020FC065
:10025000009188020A950093880211F02AF007C0E5
:100260000FEF0093800203C000270093880290D014
:1002700021F00EE1009389020FC0009189020A95D6
:100280000093890211F02AF007C00FEF009381025A
:1002900003C000270093890208957DD0102E00919D
:1002A000860265D0101469F10091860203955FD033
:1002B000101451F0009186020A9559D0101451F093
:1002C00004E0009386021DC000918602039500930E
:1002D000860205C0009186020A95009386020830C6
:1002E00019F0003041F00DC00FEF0093830204E0DD
:1002F0000093860206C00FEF0093820204E0009391
:10030000860208954BD0102E0091870237D010142A
:1003100069F100918702039531D0101451F00091DA
:1003200087020A952BD0101451F004E00093870245
:100330001DC00091870203950093870205C00091BC
:1003400087020A9500938702083019F0003041F0C7
:100350000DC00FEF0093850204E00093870206C0F2
:100360000FEF0093840204E0009387020895F1E008
:10037000E8EB1127E00FF11FC8950895F1E0E2ECDA
:100380001127E00FF11FC895089501B1007208957B
:1003900001B10470089501B1007C089501B10871A4
:1003A000089500E00093800200938102009382028E
:1003B00000938302009385020093840204E000937B
:0803C0008602009387020895F4
:00000001FF
